{
	"data": {
		"bytecode": {
			"linkReferences": {},
			"object": "60e06040523480156200001157600080fd5b506040516200108738038062001087833981810160405281019062000037919062000327565b336000806101000a81548173ffffffffffffffffffffffffffffffffffffffff021916908373ffffffffffffffffffffffffffffffffffffffff16021790555060008054906101000a900473ffffffffffffffffffffffffffffffffffffffff1673ffffffffffffffffffffffffffffffffffffffff16600073ffffffffffffffffffffffffffffffffffffffff167f342827c97908e5e2f71151c08502a66d44b6f758e3ac2f1de95f02eb95f0a73560405160405180910390a38060029081620001039190620005c3565b5042608081815250506311e1a300600381905550600260ff1660a08160ff16815250506224ea00608051620001399190620006d9565b600481905550600660ff1660c08160ff16815250507f17ca6475bfb6360f560590b7b98486285bf9dfa961b50d865ab171166e08f9916080516004546040516200018592919062000725565b60405180910390a15062000752565b6000604051905090565b600080fd5b600080fd5b600080fd5b600080fd5b6000601f19601f8301169050919050565b7f4e487b7100000000000000000000000000000000000000000000000000000000600052604160045260246000fd5b620001fd82620001b2565b810181811067ffffffffffffffff821117156200021f576200021e620001c3565b5b80604052505050565b60006200023462000194565b9050620002428282620001f2565b919050565b600067ffffffffffffffff821115620002655762000264620001c3565b5b6200027082620001b2565b9050602081019050919050565b60005b838110156200029d57808201518184015260208101905062000280565b60008484015250505050565b6000620002c0620002ba8462000247565b62000228565b905082815260208101848484011115620002df57620002de620001ad565b5b620002ec8482856200027d565b509392505050565b600082601f8301126200030c576200030b620001a8565b5b81516200031e848260208601620002a9565b91505092915050565b60006020828403121562000340576200033f6200019e565b5b600082015167ffffffffffffffff811115620003615762000360620001a3565b5b6200036f84828501620002f4565b91505092915050565b600081519050919050565b7f4e487b7100000000000000000000000000000000000000000000000000000000600052602260045260246000fd5b60006002820490506001821680620003cb57607f821691505b602082108103620003e157620003e062000383565b5b50919050565b60008190508160005260206000209050919050565b60006020601f8301049050919050565b600082821b905092915050565b6000600883026200044b7fffffffffffffffffffffffffffffffffffffffffffffffffffffffffffffffff826200040c565b6200045786836200040c565b95508019841693508086168417925050509392505050565b6000819050919050565b6000819050919050565b6000620004a46200049e62000498846200046f565b62000479565b6200046f565b9050919050565b6000819050919050565b620004c08362000483565b620004d8620004cf82620004ab565b84845462000419565b825550505050565b600090565b620004ef620004e0565b620004fc818484620004b5565b505050565b5b81811015620005245762000518600082620004e5565b60018101905062000502565b5050565b601f82111562000573576200053d81620003e7565b6200054884620003fc565b8101602085101562000558578190505b620005706200056785620003fc565b83018262000501565b50505b505050565b600082821c905092915050565b6000620005986000198460080262000578565b1980831691505092915050565b6000620005b3838362000585565b9150826002028217905092915050565b620005ce8262000378565b67ffffffffffffffff811115620005ea57620005e9620001c3565b5b620005f68254620003b2565b6200060382828562000528565b600060209050601f8311600181146200063b576000841562000626578287015190505b620006328582620005a5565b865550620006a2565b601f1984166200064b86620003e7565b60005b8281101562000675578489015182556001820191506020850194506020810190506200064e565b8683101562000695578489015162000691601f89168262000585565b8355505b6001600288020188555050505b505050505050565b7f4e487b7100000000000000000000000000000000000000000000000000000000600052601160045260246000fd5b6000620006e6826200046f565b9150620006f3836200046f565b92508282019050808211156200070e576200070d620006aa565b5b92915050565b6200071f816200046f565b82525050565b60006040820190506200073c600083018562000714565b6200074b602083018462000714565b9392505050565b60805160a05160c05161090b6200077c6000396000505060005050600061019b015261090b6000f3fe608060405234801561001057600080fd5b50600436106100885760003560e01c80638da5cb5b1161005b5780638da5cb5b14610105578063a6f9dae114610123578063f7086d941461013f578063fa36ed8c1461016f57610088565b806336e69b221461008d57806351f48cbb146100ab578063658cb40b146100c9578063893d20e8146100e7575b600080fd5b61009561018d565b6040516100a2919061052f565b60405180910390f35b6100b3610197565b6040516100c0919061052f565b60405180910390f35b6100d16101bf565b6040516100de919061052f565b60405180910390f35b6100ef6101c5565b6040516100fc919061058b565b60405180910390f35b61010d6101ee565b60405161011a919061058b565b60405180910390f35b61013d600480360381019061013891906105d7565b610212565b005b61015960048036038101906101549190610630565b610375565b604051610166919061052f565b60405180910390f35b610177610484565b60405161018491906106ed565b60405180910390f35b6000600354905090565b60007f0000000000000000000000000000000000000000000000000000000000000000905090565b60015481565b60008060009054906101000a900473ffffffffffffffffffffffffffffffffffffffff16905090565b60008054906101000a900473ffffffffffffffffffffffffffffffffffffffff1681565b60008054906101000a900473ffffffffffffffffffffffffffffffffffffffff1673ffffffffffffffffffffffffffffffffffffffff163373ffffffffffffffffffffffffffffffffffffffff16146102a0576040517f08c379a000000000000000000000000000000000000000000000000000000000815260040161029790610781565b60405180910390fd5b600160008154809291906102b3906107d0565b91905055508073ffffffffffffffffffffffffffffffffffffffff1660008054906101000a900473ffffffffffffffffffffffffffffffffffffffff1673ffffffffffffffffffffffffffffffffffffffff167f342827c97908e5e2f71151c08502a66d44b6f758e3ac2f1de95f02eb95f0a73560405160405180910390a3806000806101000a81548173ffffffffffffffffffffffffffffffffffffffff021916908373ffffffffffffffffffffffffffffffffffffffff16021790555050565b60008060009054906101000a900473ffffffffffffffffffffffffffffffffffffffff1673ffffffffffffffffffffffffffffffffffffffff163373ffffffffffffffffffffffffffffffffffffffff1614610406576040517f08c379a00000000000000000000000000000000000000000000000000000000081526004016103fd90610781565b60405180910390fd5b60016000815480929190610419906107d0565b91905055507f17ca6475bfb6360f560590b7b98486285bf9dfa961b50d865ab171166e08f991600454836004546104509190610818565b60405161045e92919061084c565b60405180910390a1816004546104749190610818565b6004819055506004549050919050565b606060028054610493906108a4565b80601f01602080910402602001604051908101604052809291908181526020018280546104bf906108a4565b801561050c5780601f106104e15761010080835404028352916020019161050c565b820191906000526020600020905b8154815290600101906020018083116104ef57829003601f168201915b5050505050905090565b6000819050919050565b61052981610516565b82525050565b60006020820190506105446000830184610520565b92915050565b600073ffffffffffffffffffffffffffffffffffffffff82169050919050565b60006105758261054a565b9050919050565b6105858161056a565b82525050565b60006020820190506105a0600083018461057c565b92915050565b600080fd5b6105b48161056a565b81146105bf57600080fd5b50565b6000813590506105d1816105ab565b92915050565b6000602082840312156105ed576105ec6105a6565b5b60006105fb848285016105c2565b91505092915050565b61060d81610516565b811461061857600080fd5b50565b60008135905061062a81610604565b92915050565b600060208284031215610646576106456105a6565b5b60006106548482850161061b565b91505092915050565b600081519050919050565b600082825260208201905092915050565b60005b8381101561069757808201518184015260208101905061067c565b60008484015250505050565b6000601f19601f8301169050919050565b60006106bf8261065d565b6106c98185610668565b93506106d9818560208601610679565b6106e2816106a3565b840191505092915050565b6000602082019050818103600083015261070781846106b4565b905092915050565b7f536f6d656e7465206f206f776e657220706f646520657865637574617220657360008201527f7361206f7065726163616f000000000000000000000000000000000000000000602082015250565b600061076b602b83610668565b91506107768261070f565b604082019050919050565b6000602082019050818103600083015261079a8161075e565b9050919050565b7f4e487b7100000000000000000000000000000000000000000000000000000000600052601160045260246000fd5b60006107db82610516565b91507fffffffffffffffffffffffffffffffffffffffffffffffffffffffffffffffff820361080d5761080c6107a1565b5b600182019050919050565b600061082382610516565b915061082e83610516565b9250828201905080821115610846576108456107a1565b5b92915050565b60006040820190506108616000830185610520565b61086e6020830184610520565b9392505050565b7f4e487b7100000000000000000000000000000000000000000000000000000000600052602260045260246000fd5b600060028204905060018216806108bc57607f821691505b6020821081036108cf576108ce610875565b5b5091905056fea264697066735822122068fe903a148344f10809fce3232d1a1cc0f3e0d7ec810815f6c3507a5430022064736f6c63430008130033",
			"opcodes": "PUSH1 0xE0 PUSH1 0x40 MSTORE CALLVALUE DUP1 ISZERO PUSH3 0x11 JUMPI PUSH1 0x0 DUP1 REVERT JUMPDEST POP PUSH1 0x40 MLOAD PUSH3 0x1087 CODESIZE SUB DUP1 PUSH3 0x1087 DUP4 CODECOPY DUP2 DUP2 ADD PUSH1 0x40 MSTORE DUP2 ADD SWAP1 PUSH3 0x37 SWAP2 SWAP1 PUSH3 0x327 JUMP JUMPDEST CALLER PUSH1 0x0 DUP1 PUSH2 0x100 EXP DUP2 SLOAD DUP2 PUSH20 0xFFFFFFFFFFFFFFFFFFFFFFFFFFFFFFFFFFFFFFFF MUL NOT AND SWAP1 DUP4 PUSH20 0xFFFFFFFFFFFFFFFFFFFFFFFFFFFFFFFFFFFFFFFF AND MUL OR SWAP1 SSTORE POP PUSH1 0x0 DUP1 SLOAD SWAP1 PUSH2 0x100 EXP SWAP1 DIV PUSH20 0xFFFFFFFFFFFFFFFFFFFFFFFFFFFFFFFFFFFFFFFF AND PUSH20 0xFFFFFFFFFFFFFFFFFFFFFFFFFFFFFFFFFFFFFFFF AND PUSH1 0x0 PUSH20 0xFFFFFFFFFFFFFFFFFFFFFFFFFFFFFFFFFFFFFFFF AND PUSH32 0x342827C97908E5E2F71151C08502A66D44B6F758E3AC2F1DE95F02EB95F0A735 PUSH1 0x40 MLOAD PUSH1 0x40 MLOAD DUP1 SWAP2 SUB SWAP1 LOG3 DUP1 PUSH1 0x2 SWAP1 DUP2 PUSH3 0x103 SWAP2 SWAP1 PUSH3 0x5C3 JUMP JUMPDEST POP TIMESTAMP PUSH1 0x80 DUP2 DUP2 MSTORE POP POP PUSH4 0x11E1A300 PUSH1 0x3 DUP2 SWAP1 SSTORE POP PUSH1 0x2 PUSH1 0xFF AND PUSH1 0xA0 DUP2 PUSH1 0xFF AND DUP2 MSTORE POP POP PUSH3 0x24EA00 PUSH1 0x80 MLOAD PUSH3 0x139 SWAP2 SWAP1 PUSH3 0x6D9 JUMP JUMPDEST PUSH1 0x4 DUP2 SWAP1 SSTORE POP PUSH1 0x6 PUSH1 0xFF AND PUSH1 0xC0 DUP2 PUSH1 0xFF AND DUP2 MSTORE POP POP PUSH32 0x17CA6475BFB6360F560590B7B98486285BF9DFA961B50D865AB171166E08F991 PUSH1 0x80 MLOAD PUSH1 0x4 SLOAD PUSH1 0x40 MLOAD PUSH3 0x185 SWAP3 SWAP2 SWAP1 PUSH3 0x725 JUMP JUMPDEST PUSH1 0x40 MLOAD DUP1 SWAP2 SUB SWAP1 LOG1 POP PUSH3 0x752 JUMP JUMPDEST PUSH1 0x0 PUSH1 0x40 MLOAD SWAP1 POP SWAP1 JUMP JUMPDEST PUSH1 0x0 DUP1 REVERT JUMPDEST PUSH1 0x0 DUP1 REVERT JUMPDEST PUSH1 0x0 DUP1 REVERT JUMPDEST PUSH1 0x0 DUP1 REVERT JUMPDEST PUSH1 0x0 PUSH1 0x1F NOT PUSH1 0x1F DUP4 ADD AND SWAP1 POP SWAP2 SWAP1 POP JUMP JUMPDEST PUSH32 0x4E487B7100000000000000000000000000000000000000000000000000000000 PUSH1 0x0 MSTORE PUSH1 0x41 PUSH1 0x4 MSTORE PUSH1 0x24 PUSH1 0x0 REVERT JUMPDEST PUSH3 0x1FD DUP3 PUSH3 0x1B2 JUMP JUMPDEST DUP2 ADD DUP2 DUP2 LT PUSH8 0xFFFFFFFFFFFFFFFF DUP3 GT OR ISZERO PUSH3 0x21F JUMPI PUSH3 0x21E PUSH3 0x1C3 JUMP JUMPDEST JUMPDEST DUP1 PUSH1 0x40 MSTORE POP POP POP JUMP JUMPDEST PUSH1 0x0 PUSH3 0x234 PUSH3 0x194 JUMP JUMPDEST SWAP1 POP PUSH3 0x242 DUP3 DUP3 PUSH3 0x1F2 JUMP JUMPDEST SWAP2 SWAP1 POP JUMP JUMPDEST PUSH1 0x0 PUSH8 0xFFFFFFFFFFFFFFFF DUP3 GT ISZERO PUSH3 0x265 JUMPI PUSH3 0x264 PUSH3 0x1C3 JUMP JUMPDEST JUMPDEST PUSH3 0x270 DUP3 PUSH3 0x1B2 JUMP JUMPDEST SWAP1 POP PUSH1 0x20 DUP2 ADD SWAP1 POP SWAP2 SWAP1 POP JUMP JUMPDEST PUSH1 0x0 JUMPDEST DUP4 DUP2 LT ISZERO PUSH3 0x29D JUMPI DUP1 DUP3 ADD MLOAD DUP2 DUP5 ADD MSTORE PUSH1 0x20 DUP2 ADD SWAP1 POP PUSH3 0x280 JUMP JUMPDEST PUSH1 0x0 DUP5 DUP5 ADD MSTORE POP POP POP POP JUMP JUMPDEST PUSH1 0x0 PUSH3 0x2C0 PUSH3 0x2BA DUP5 PUSH3 0x247 JUMP JUMPDEST PUSH3 0x228 JUMP JUMPDEST SWAP1 POP DUP3 DUP2 MSTORE PUSH1 0x20 DUP2 ADD DUP5 DUP5 DUP5 ADD GT ISZERO PUSH3 0x2DF JUMPI PUSH3 0x2DE PUSH3 0x1AD JUMP JUMPDEST JUMPDEST PUSH3 0x2EC DUP5 DUP3 DUP6 PUSH3 0x27D JUMP JUMPDEST POP SWAP4 SWAP3 POP POP POP JUMP JUMPDEST PUSH1 0x0 DUP3 PUSH1 0x1F DUP4 ADD SLT PUSH3 0x30C JUMPI PUSH3 0x30B PUSH3 0x1A8 JUMP JUMPDEST JUMPDEST DUP2 MLOAD PUSH3 0x31E DUP5 DUP3 PUSH1 0x20 DUP7 ADD PUSH3 0x2A9 JUMP JUMPDEST SWAP2 POP POP SWAP3 SWAP2 POP POP JUMP JUMPDEST PUSH1 0x0 PUSH1 0x20 DUP3 DUP5 SUB SLT ISZERO PUSH3 0x340 JUMPI PUSH3 0x33F PUSH3 0x19E JUMP JUMPDEST JUMPDEST PUSH1 0x0 DUP3 ADD MLOAD PUSH8 0xFFFFFFFFFFFFFFFF DUP2 GT ISZERO PUSH3 0x361 JUMPI PUSH3 0x360 PUSH3 0x1A3 JUMP JUMPDEST JUMPDEST PUSH3 0x36F DUP5 DUP3 DUP6 ADD PUSH3 0x2F4 JUMP JUMPDEST SWAP2 POP POP SWAP3 SWAP2 POP POP JUMP JUMPDEST PUSH1 0x0 DUP2 MLOAD SWAP1 POP SWAP2 SWAP1 POP JUMP JUMPDEST PUSH32 0x4E487B7100000000000000000000000000000000000000000000000000000000 PUSH1 0x0 MSTORE PUSH1 0x22 PUSH1 0x4 MSTORE PUSH1 0x24 PUSH1 0x0 REVERT JUMPDEST PUSH1 0x0 PUSH1 0x2 DUP3 DIV SWAP1 POP PUSH1 0x1 DUP3 AND DUP1 PUSH3 0x3CB JUMPI PUSH1 0x7F DUP3 AND SWAP2 POP JUMPDEST PUSH1 0x20 DUP3 LT DUP2 SUB PUSH3 0x3E1 JUMPI PUSH3 0x3E0 PUSH3 0x383 JUMP JUMPDEST JUMPDEST POP SWAP2 SWAP1 POP JUMP JUMPDEST PUSH1 0x0 DUP2 SWAP1 POP DUP2 PUSH1 0x0 MSTORE PUSH1 0x20 PUSH1 0x0 KECCAK256 SWAP1 POP SWAP2 SWAP1 POP JUMP JUMPDEST PUSH1 0x0 PUSH1 0x20 PUSH1 0x1F DUP4 ADD DIV SWAP1 POP SWAP2 SWAP1 POP JUMP JUMPDEST PUSH1 0x0 DUP3 DUP3 SHL SWAP1 POP SWAP3 SWAP2 POP POP JUMP JUMPDEST PUSH1 0x0 PUSH1 0x8 DUP4 MUL PUSH3 0x44B PUSH32 0xFFFFFFFFFFFFFFFFFFFFFFFFFFFFFFFFFFFFFFFFFFFFFFFFFFFFFFFFFFFFFFFF DUP3 PUSH3 0x40C JUMP JUMPDEST PUSH3 0x457 DUP7 DUP4 PUSH3 0x40C JUMP JUMPDEST SWAP6 POP DUP1 NOT DUP5 AND SWAP4 POP DUP1 DUP7 AND DUP5 OR SWAP3 POP POP POP SWAP4 SWAP3 POP POP POP JUMP JUMPDEST PUSH1 0x0 DUP2 SWAP1 POP SWAP2 SWAP1 POP JUMP JUMPDEST PUSH1 0x0 DUP2 SWAP1 POP SWAP2 SWAP1 POP JUMP JUMPDEST PUSH1 0x0 PUSH3 0x4A4 PUSH3 0x49E PUSH3 0x498 DUP5 PUSH3 0x46F JUMP JUMPDEST PUSH3 0x479 JUMP JUMPDEST PUSH3 0x46F JUMP JUMPDEST SWAP1 POP SWAP2 SWAP1 POP JUMP JUMPDEST PUSH1 0x0 DUP2 SWAP1 POP SWAP2 SWAP1 POP JUMP JUMPDEST PUSH3 0x4C0 DUP4 PUSH3 0x483 JUMP JUMPDEST PUSH3 0x4D8 PUSH3 0x4CF DUP3 PUSH3 0x4AB JUMP JUMPDEST DUP5 DUP5 SLOAD PUSH3 0x419 JUMP JUMPDEST DUP3 SSTORE POP POP POP POP JUMP JUMPDEST PUSH1 0x0 SWAP1 JUMP JUMPDEST PUSH3 0x4EF PUSH3 0x4E0 JUMP JUMPDEST PUSH3 0x4FC DUP2 DUP5 DUP5 PUSH3 0x4B5 JUMP JUMPDEST POP POP POP JUMP JUMPDEST JUMPDEST DUP2 DUP2 LT ISZERO PUSH3 0x524 JUMPI PUSH3 0x518 PUSH1 0x0 DUP3 PUSH3 0x4E5 JUMP JUMPDEST PUSH1 0x1 DUP2 ADD SWAP1 POP PUSH3 0x502 JUMP JUMPDEST POP POP JUMP JUMPDEST PUSH1 0x1F DUP3 GT ISZERO PUSH3 0x573 JUMPI PUSH3 0x53D DUP2 PUSH3 0x3E7 JUMP JUMPDEST PUSH3 0x548 DUP5 PUSH3 0x3FC JUMP JUMPDEST DUP2 ADD PUSH1 0x20 DUP6 LT ISZERO PUSH3 0x558 JUMPI DUP2 SWAP1 POP JUMPDEST PUSH3 0x570 PUSH3 0x567 DUP6 PUSH3 0x3FC JUMP JUMPDEST DUP4 ADD DUP3 PUSH3 0x501 JUMP JUMPDEST POP POP JUMPDEST POP POP POP JUMP JUMPDEST PUSH1 0x0 DUP3 DUP3 SHR SWAP1 POP SWAP3 SWAP2 POP POP JUMP JUMPDEST PUSH1 0x0 PUSH3 0x598 PUSH1 0x0 NOT DUP5 PUSH1 0x8 MUL PUSH3 0x578 JUMP JUMPDEST NOT DUP1 DUP4 AND SWAP2 POP POP SWAP3 SWAP2 POP POP JUMP JUMPDEST PUSH1 0x0 PUSH3 0x5B3 DUP4 DUP4 PUSH3 0x585 JUMP JUMPDEST SWAP2 POP DUP3 PUSH1 0x2 MUL DUP3 OR SWAP1 POP SWAP3 SWAP2 POP POP JUMP JUMPDEST PUSH3 0x5CE DUP3 PUSH3 0x378 JUMP JUMPDEST PUSH8 0xFFFFFFFFFFFFFFFF DUP2 GT ISZERO PUSH3 0x5EA JUMPI PUSH3 0x5E9 PUSH3 0x1C3 JUMP JUMPDEST JUMPDEST PUSH3 0x5F6 DUP3 SLOAD PUSH3 0x3B2 JUMP JUMPDEST PUSH3 0x603 DUP3 DUP3 DUP6 PUSH3 0x528 JUMP JUMPDEST PUSH1 0x0 PUSH1 0x20 SWAP1 POP PUSH1 0x1F DUP4 GT PUSH1 0x1 DUP2 EQ PUSH3 0x63B JUMPI PUSH1 0x0 DUP5 ISZERO PUSH3 0x626 JUMPI DUP3 DUP8 ADD MLOAD SWAP1 POP JUMPDEST PUSH3 0x632 DUP6 DUP3 PUSH3 0x5A5 JUMP JUMPDEST DUP7 SSTORE POP PUSH3 0x6A2 JUMP JUMPDEST PUSH1 0x1F NOT DUP5 AND PUSH3 0x64B DUP7 PUSH3 0x3E7 JUMP JUMPDEST PUSH1 0x0 JUMPDEST DUP3 DUP2 LT ISZERO PUSH3 0x675 JUMPI DUP5 DUP10 ADD MLOAD DUP3 SSTORE PUSH1 0x1 DUP3 ADD SWAP2 POP PUSH1 0x20 DUP6 ADD SWAP5 POP PUSH1 0x20 DUP2 ADD SWAP1 POP PUSH3 0x64E JUMP JUMPDEST DUP7 DUP4 LT ISZERO PUSH3 0x695 JUMPI DUP5 DUP10 ADD MLOAD PUSH3 0x691 PUSH1 0x1F DUP10 AND DUP3 PUSH3 0x585 JUMP JUMPDEST DUP4 SSTORE POP JUMPDEST PUSH1 0x1 PUSH1 0x2 DUP9 MUL ADD DUP9 SSTORE POP POP POP JUMPDEST POP POP POP POP POP POP JUMP JUMPDEST PUSH32 0x4E487B7100000000000000000000000000000000000000000000000000000000 PUSH1 0x0 MSTORE PUSH1 0x11 PUSH1 0x4 MSTORE PUSH1 0x24 PUSH1 0x0 REVERT JUMPDEST PUSH1 0x0 PUSH3 0x6E6 DUP3 PUSH3 0x46F JUMP JUMPDEST SWAP2 POP PUSH3 0x6F3 DUP4 PUSH3 0x46F JUMP JUMPDEST SWAP3 POP DUP3 DUP3 ADD SWAP1 POP DUP1 DUP3 GT ISZERO PUSH3 0x70E JUMPI PUSH3 0x70D PUSH3 0x6AA JUMP JUMPDEST JUMPDEST SWAP3 SWAP2 POP POP JUMP JUMPDEST PUSH3 0x71F DUP2 PUSH3 0x46F JUMP JUMPDEST DUP3 MSTORE POP POP JUMP JUMPDEST PUSH1 0x0 PUSH1 0x40 DUP3 ADD SWAP1 POP PUSH3 0x73C PUSH1 0x0 DUP4 ADD DUP6 PUSH3 0x714 JUMP JUMPDEST PUSH3 0x74B PUSH1 0x20 DUP4 ADD DUP5 PUSH3 0x714 JUMP JUMPDEST SWAP4 SWAP3 POP POP POP JUMP JUMPDEST PUSH1 0x80 MLOAD PUSH1 0xA0 MLOAD PUSH1 0xC0 MLOAD PUSH2 0x90B PUSH3 0x77C PUSH1 0x0 CODECOPY PUSH1 0x0 POP POP PUSH1 0x0 POP POP PUSH1 0x0 PUSH2 0x19B ADD MSTORE PUSH2 0x90B PUSH1 0x0 RETURN INVALID PUSH1 0x80 PUSH1 0x40 MSTORE CALLVALUE DUP1 ISZERO PUSH2 0x10 JUMPI PUSH1 0x0 DUP1 REVERT JUMPDEST POP PUSH1 0x4 CALLDATASIZE LT PUSH2 0x88 JUMPI PUSH1 0x0 CALLDATALOAD PUSH1 0xE0 SHR DUP1 PUSH4 0x8DA5CB5B GT PUSH2 0x5B JUMPI DUP1 PUSH4 0x8DA5CB5B EQ PUSH2 0x105 JUMPI DUP1 PUSH4 0xA6F9DAE1 EQ PUSH2 0x123 JUMPI DUP1 PUSH4 0xF7086D94 EQ PUSH2 0x13F JUMPI DUP1 PUSH4 0xFA36ED8C EQ PUSH2 0x16F JUMPI PUSH2 0x88 JUMP JUMPDEST DUP1 PUSH4 0x36E69B22 EQ PUSH2 0x8D JUMPI DUP1 PUSH4 0x51F48CBB EQ PUSH2 0xAB JUMPI DUP1 PUSH4 0x658CB40B EQ PUSH2 0xC9 JUMPI DUP1 PUSH4 0x893D20E8 EQ PUSH2 0xE7 JUMPI JUMPDEST PUSH1 0x0 DUP1 REVERT JUMPDEST PUSH2 0x95 PUSH2 0x18D JUMP JUMPDEST PUSH1 0x40 MLOAD PUSH2 0xA2 SWAP2 SWAP1 PUSH2 0x52F JUMP JUMPDEST PUSH1 0x40 MLOAD DUP1 SWAP2 SUB SWAP1 RETURN JUMPDEST PUSH2 0xB3 PUSH2 0x197 JUMP JUMPDEST PUSH1 0x40 MLOAD PUSH2 0xC0 SWAP2 SWAP1 PUSH2 0x52F JUMP JUMPDEST PUSH1 0x40 MLOAD DUP1 SWAP2 SUB SWAP1 RETURN JUMPDEST PUSH2 0xD1 PUSH2 0x1BF JUMP JUMPDEST PUSH1 0x40 MLOAD PUSH2 0xDE SWAP2 SWAP1 PUSH2 0x52F JUMP JUMPDEST PUSH1 0x40 MLOAD DUP1 SWAP2 SUB SWAP1 RETURN JUMPDEST PUSH2 0xEF PUSH2 0x1C5 JUMP JUMPDEST PUSH1 0x40 MLOAD PUSH2 0xFC SWAP2 SWAP1 PUSH2 0x58B JUMP JUMPDEST PUSH1 0x40 MLOAD DUP1 SWAP2 SUB SWAP1 RETURN JUMPDEST PUSH2 0x10D PUSH2 0x1EE JUMP JUMPDEST PUSH1 0x40 MLOAD PUSH2 0x11A SWAP2 SWAP1 PUSH2 0x58B JUMP JUMPDEST PUSH1 0x40 MLOAD DUP1 SWAP2 SUB SWAP1 RETURN JUMPDEST PUSH2 0x13D PUSH1 0x4 DUP1 CALLDATASIZE SUB DUP2 ADD SWAP1 PUSH2 0x138 SWAP2 SWAP1 PUSH2 0x5D7 JUMP JUMPDEST PUSH2 0x212 JUMP JUMPDEST STOP JUMPDEST PUSH2 0x159 PUSH1 0x4 DUP1 CALLDATASIZE SUB DUP2 ADD SWAP1 PUSH2 0x154 SWAP2 SWAP1 PUSH2 0x630 JUMP JUMPDEST PUSH2 0x375 JUMP JUMPDEST PUSH1 0x40 MLOAD PUSH2 0x166 SWAP2 SWAP1 PUSH2 0x52F JUMP JUMPDEST PUSH1 0x40 MLOAD DUP1 SWAP2 SUB SWAP1 RETURN JUMPDEST PUSH2 0x177 PUSH2 0x484 JUMP JUMPDEST PUSH1 0x40 MLOAD PUSH2 0x184 SWAP2 SWAP1 PUSH2 0x6ED JUMP JUMPDEST PUSH1 0x40 MLOAD DUP1 SWAP2 SUB SWAP1 RETURN JUMPDEST PUSH1 0x0 PUSH1 0x3 SLOAD SWAP1 POP SWAP1 JUMP JUMPDEST PUSH1 0x0 PUSH32 0x0 SWAP1 POP SWAP1 JUMP JUMPDEST PUSH1 0x1 SLOAD DUP2 JUMP JUMPDEST PUSH1 0x0 DUP1 PUSH1 0x0 SWAP1 SLOAD SWAP1 PUSH2 0x100 EXP SWAP1 DIV PUSH20 0xFFFFFFFFFFFFFFFFFFFFFFFFFFFFFFFFFFFFFFFF AND SWAP1 POP SWAP1 JUMP JUMPDEST PUSH1 0x0 DUP1 SLOAD SWAP1 PUSH2 0x100 EXP SWAP1 DIV PUSH20 0xFFFFFFFFFFFFFFFFFFFFFFFFFFFFFFFFFFFFFFFF AND DUP2 JUMP JUMPDEST PUSH1 0x0 DUP1 SLOAD SWAP1 PUSH2 0x100 EXP SWAP1 DIV PUSH20 0xFFFFFFFFFFFFFFFFFFFFFFFFFFFFFFFFFFFFFFFF AND PUSH20 0xFFFFFFFFFFFFFFFFFFFFFFFFFFFFFFFFFFFFFFFF AND CALLER PUSH20 0xFFFFFFFFFFFFFFFFFFFFFFFFFFFFFFFFFFFFFFFF AND EQ PUSH2 0x2A0 JUMPI PUSH1 0x40 MLOAD PUSH32 0x8C379A000000000000000000000000000000000000000000000000000000000 DUP2 MSTORE PUSH1 0x4 ADD PUSH2 0x297 SWAP1 PUSH2 0x781 JUMP JUMPDEST PUSH1 0x40 MLOAD DUP1 SWAP2 SUB SWAP1 REVERT JUMPDEST PUSH1 0x1 PUSH1 0x0 DUP2 SLOAD DUP1 SWAP3 SWAP2 SWAP1 PUSH2 0x2B3 SWAP1 PUSH2 0x7D0 JUMP JUMPDEST SWAP2 SWAP1 POP SSTORE POP DUP1 PUSH20 0xFFFFFFFFFFFFFFFFFFFFFFFFFFFFFFFFFFFFFFFF AND PUSH1 0x0 DUP1 SLOAD SWAP1 PUSH2 0x100 EXP SWAP1 DIV PUSH20 0xFFFFFFFFFFFFFFFFFFFFFFFFFFFFFFFFFFFFFFFF AND PUSH20 0xFFFFFFFFFFFFFFFFFFFFFFFFFFFFFFFFFFFFFFFF AND PUSH32 0x342827C97908E5E2F71151C08502A66D44B6F758E3AC2F1DE95F02EB95F0A735 PUSH1 0x40 MLOAD PUSH1 0x40 MLOAD DUP1 SWAP2 SUB SWAP1 LOG3 DUP1 PUSH1 0x0 DUP1 PUSH2 0x100 EXP DUP2 SLOAD DUP2 PUSH20 0xFFFFFFFFFFFFFFFFFFFFFFFFFFFFFFFFFFFFFFFF MUL NOT AND SWAP1 DUP4 PUSH20 0xFFFFFFFFFFFFFFFFFFFFFFFFFFFFFFFFFFFFFFFF AND MUL OR SWAP1 SSTORE POP POP JUMP JUMPDEST PUSH1 0x0 DUP1 PUSH1 0x0 SWAP1 SLOAD SWAP1 PUSH2 0x100 EXP SWAP1 DIV PUSH20 0xFFFFFFFFFFFFFFFFFFFFFFFFFFFFFFFFFFFFFFFF AND PUSH20 0xFFFFFFFFFFFFFFFFFFFFFFFFFFFFFFFFFFFFFFFF AND CALLER PUSH20 0xFFFFFFFFFFFFFFFFFFFFFFFFFFFFFFFFFFFFFFFF AND EQ PUSH2 0x406 JUMPI PUSH1 0x40 MLOAD PUSH32 0x8C379A000000000000000000000000000000000000000000000000000000000 DUP2 MSTORE PUSH1 0x4 ADD PUSH2 0x3FD SWAP1 PUSH2 0x781 JUMP JUMPDEST PUSH1 0x40 MLOAD DUP1 SWAP2 SUB SWAP1 REVERT JUMPDEST PUSH1 0x1 PUSH1 0x0 DUP2 SLOAD DUP1 SWAP3 SWAP2 SWAP1 PUSH2 0x419 SWAP1 PUSH2 0x7D0 JUMP JUMPDEST SWAP2 SWAP1 POP SSTORE POP PUSH32 0x17CA6475BFB6360F560590B7B98486285BF9DFA961B50D865AB171166E08F991 PUSH1 0x4 SLOAD DUP4 PUSH1 0x4 SLOAD PUSH2 0x450 SWAP2 SWAP1 PUSH2 0x818 JUMP JUMPDEST PUSH1 0x40 MLOAD PUSH2 0x45E SWAP3 SWAP2 SWAP1 PUSH2 0x84C JUMP JUMPDEST PUSH1 0x40 MLOAD DUP1 SWAP2 SUB SWAP1 LOG1 DUP2 PUSH1 0x4 SLOAD PUSH2 0x474 SWAP2 SWAP1 PUSH2 0x818 JUMP JUMPDEST PUSH1 0x4 DUP2 SWAP1 SSTORE POP PUSH1 0x4 SLOAD SWAP1 POP SWAP2 SWAP1 POP JUMP JUMPDEST PUSH1 0x60 PUSH1 0x2 DUP1 SLOAD PUSH2 0x493 SWAP1 PUSH2 0x8A4 JUMP JUMPDEST DUP1 PUSH1 0x1F ADD PUSH1 0x20 DUP1 SWAP2 DIV MUL PUSH1 0x20 ADD PUSH1 0x40 MLOAD SWAP1 DUP2 ADD PUSH1 0x40 MSTORE DUP1 SWAP3 SWAP2 SWAP1 DUP2 DUP2 MSTORE PUSH1 0x20 ADD DUP3 DUP1 SLOAD PUSH2 0x4BF SWAP1 PUSH2 0x8A4 JUMP JUMPDEST DUP1 ISZERO PUSH2 0x50C JUMPI DUP1 PUSH1 0x1F LT PUSH2 0x4E1 JUMPI PUSH2 0x100 DUP1 DUP4 SLOAD DIV MUL DUP4 MSTORE SWAP2 PUSH1 0x20 ADD SWAP2 PUSH2 0x50C JUMP JUMPDEST DUP3 ADD SWAP2 SWAP1 PUSH1 0x0 MSTORE PUSH1 0x20 PUSH1 0x0 KECCAK256 SWAP1 JUMPDEST DUP2 SLOAD DUP2 MSTORE SWAP1 PUSH1 0x1 ADD SWAP1 PUSH1 0x20 ADD DUP1 DUP4 GT PUSH2 0x4EF JUMPI DUP3 SWAP1 SUB PUSH1 0x1F AND DUP3 ADD SWAP2 JUMPDEST POP POP POP POP POP SWAP1 POP SWAP1 JUMP JUMPDEST PUSH1 0x0 DUP2 SWAP1 POP SWAP2 SWAP1 POP JUMP JUMPDEST PUSH2 0x529 DUP2 PUSH2 0x516 JUMP JUMPDEST DUP3 MSTORE POP POP JUMP JUMPDEST PUSH1 0x0 PUSH1 0x20 DUP3 ADD SWAP1 POP PUSH2 0x544 PUSH1 0x0 DUP4 ADD DUP5 PUSH2 0x520 JUMP JUMPDEST SWAP3 SWAP2 POP POP JUMP JUMPDEST PUSH1 0x0 PUSH20 0xFFFFFFFFFFFFFFFFFFFFFFFFFFFFFFFFFFFFFFFF DUP3 AND SWAP1 POP SWAP2 SWAP1 POP JUMP JUMPDEST PUSH1 0x0 PUSH2 0x575 DUP3 PUSH2 0x54A JUMP JUMPDEST SWAP1 POP SWAP2 SWAP1 POP JUMP JUMPDEST PUSH2 0x585 DUP2 PUSH2 0x56A JUMP JUMPDEST DUP3 MSTORE POP POP JUMP JUMPDEST PUSH1 0x0 PUSH1 0x20 DUP3 ADD SWAP1 POP PUSH2 0x5A0 PUSH1 0x0 DUP4 ADD DUP5 PUSH2 0x57C JUMP JUMPDEST SWAP3 SWAP2 POP POP JUMP JUMPDEST PUSH1 0x0 DUP1 REVERT JUMPDEST PUSH2 0x5B4 DUP2 PUSH2 0x56A JUMP JUMPDEST DUP2 EQ PUSH2 0x5BF JUMPI PUSH1 0x0 DUP1 REVERT JUMPDEST POP JUMP JUMPDEST PUSH1 0x0 DUP2 CALLDATALOAD SWAP1 POP PUSH2 0x5D1 DUP2 PUSH2 0x5AB JUMP JUMPDEST SWAP3 SWAP2 POP POP JUMP JUMPDEST PUSH1 0x0 PUSH1 0x20 DUP3 DUP5 SUB SLT ISZERO PUSH2 0x5ED JUMPI PUSH2 0x5EC PUSH2 0x5A6 JUMP JUMPDEST JUMPDEST PUSH1 0x0 PUSH2 0x5FB DUP5 DUP3 DUP6 ADD PUSH2 0x5C2 JUMP JUMPDEST SWAP2 POP POP SWAP3 SWAP2 POP POP JUMP JUMPDEST PUSH2 0x60D DUP2 PUSH2 0x516 JUMP JUMPDEST DUP2 EQ PUSH2 0x618 JUMPI PUSH1 0x0 DUP1 REVERT JUMPDEST POP JUMP JUMPDEST PUSH1 0x0 DUP2 CALLDATALOAD SWAP1 POP PUSH2 0x62A DUP2 PUSH2 0x604 JUMP JUMPDEST SWAP3 SWAP2 POP POP JUMP JUMPDEST PUSH1 0x0 PUSH1 0x20 DUP3 DUP5 SUB SLT ISZERO PUSH2 0x646 JUMPI PUSH2 0x645 PUSH2 0x5A6 JUMP JUMPDEST JUMPDEST PUSH1 0x0 PUSH2 0x654 DUP5 DUP3 DUP6 ADD PUSH2 0x61B JUMP JUMPDEST SWAP2 POP POP SWAP3 SWAP2 POP POP JUMP JUMPDEST PUSH1 0x0 DUP2 MLOAD SWAP1 POP SWAP2 SWAP1 POP JUMP JUMPDEST PUSH1 0x0 DUP3 DUP3 MSTORE PUSH1 0x20 DUP3 ADD SWAP1 POP SWAP3 SWAP2 POP POP JUMP JUMPDEST PUSH1 0x0 JUMPDEST DUP4 DUP2 LT ISZERO PUSH2 0x697 JUMPI DUP1 DUP3 ADD MLOAD DUP2 DUP5 ADD MSTORE PUSH1 0x20 DUP2 ADD SWAP1 POP PUSH2 0x67C JUMP JUMPDEST PUSH1 0x0 DUP5 DUP5 ADD MSTORE POP POP POP POP JUMP JUMPDEST PUSH1 0x0 PUSH1 0x1F NOT PUSH1 0x1F DUP4 ADD AND SWAP1 POP SWAP2 SWAP1 POP JUMP JUMPDEST PUSH1 0x0 PUSH2 0x6BF DUP3 PUSH2 0x65D JUMP JUMPDEST PUSH2 0x6C9 DUP2 DUP6 PUSH2 0x668 JUMP JUMPDEST SWAP4 POP PUSH2 0x6D9 DUP2 DUP6 PUSH1 0x20 DUP7 ADD PUSH2 0x679 JUMP JUMPDEST PUSH2 0x6E2 DUP2 PUSH2 0x6A3 JUMP JUMPDEST DUP5 ADD SWAP2 POP POP SWAP3 SWAP2 POP POP JUMP JUMPDEST PUSH1 0x0 PUSH1 0x20 DUP3 ADD SWAP1 POP DUP2 DUP2 SUB PUSH1 0x0 DUP4 ADD MSTORE PUSH2 0x707 DUP2 DUP5 PUSH2 0x6B4 JUMP JUMPDEST SWAP1 POP SWAP3 SWAP2 POP POP JUMP JUMPDEST PUSH32 0x536F6D656E7465206F206F776E657220706F6465206578656375746172206573 PUSH1 0x0 DUP3 ADD MSTORE PUSH32 0x7361206F7065726163616F000000000000000000000000000000000000000000 PUSH1 0x20 DUP3 ADD MSTORE POP JUMP JUMPDEST PUSH1 0x0 PUSH2 0x76B PUSH1 0x2B DUP4 PUSH2 0x668 JUMP JUMPDEST SWAP2 POP PUSH2 0x776 DUP3 PUSH2 0x70F JUMP JUMPDEST PUSH1 0x40 DUP3 ADD SWAP1 POP SWAP2 SWAP1 POP JUMP JUMPDEST PUSH1 0x0 PUSH1 0x20 DUP3 ADD SWAP1 POP DUP2 DUP2 SUB PUSH1 0x0 DUP4 ADD MSTORE PUSH2 0x79A DUP2 PUSH2 0x75E JUMP JUMPDEST SWAP1 POP SWAP2 SWAP1 POP JUMP JUMPDEST PUSH32 0x4E487B7100000000000000000000000000000000000000000000000000000000 PUSH1 0x0 MSTORE PUSH1 0x11 PUSH1 0x4 MSTORE PUSH1 0x24 PUSH1 0x0 REVERT JUMPDEST PUSH1 0x0 PUSH2 0x7DB DUP3 PUSH2 0x516 JUMP JUMPDEST SWAP2 POP PUSH32 0xFFFFFFFFFFFFFFFFFFFFFFFFFFFFFFFFFFFFFFFFFFFFFFFFFFFFFFFFFFFFFFFF DUP3 SUB PUSH2 0x80D JUMPI PUSH2 0x80C PUSH2 0x7A1 JUMP JUMPDEST JUMPDEST PUSH1 0x1 DUP3 ADD SWAP1 POP SWAP2 SWAP1 POP JUMP JUMPDEST PUSH1 0x0 PUSH2 0x823 DUP3 PUSH2 0x516 JUMP JUMPDEST SWAP2 POP PUSH2 0x82E DUP4 PUSH2 0x516 JUMP JUMPDEST SWAP3 POP DUP3 DUP3 ADD SWAP1 POP DUP1 DUP3 GT ISZERO PUSH2 0x846 JUMPI PUSH2 0x845 PUSH2 0x7A1 JUMP JUMPDEST JUMPDEST SWAP3 SWAP2 POP POP JUMP JUMPDEST PUSH1 0x0 PUSH1 0x40 DUP3 ADD SWAP1 POP PUSH2 0x861 PUSH1 0x0 DUP4 ADD DUP6 PUSH2 0x520 JUMP JUMPDEST PUSH2 0x86E PUSH1 0x20 DUP4 ADD DUP5 PUSH2 0x520 JUMP JUMPDEST SWAP4 SWAP3 POP POP POP JUMP JUMPDEST PUSH32 0x4E487B7100000000000000000000000000000000000000000000000000000000 PUSH1 0x0 MSTORE PUSH1 0x22 PUSH1 0x4 MSTORE PUSH1 0x24 PUSH1 0x0 REVERT JUMPDEST PUSH1 0x0 PUSH1 0x2 DUP3 DIV SWAP1 POP PUSH1 0x1 DUP3 AND DUP1 PUSH2 0x8BC JUMPI PUSH1 0x7F DUP3 AND SWAP2 POP JUMPDEST PUSH1 0x20 DUP3 LT DUP2 SUB PUSH2 0x8CF JUMPI PUSH2 0x8CE PUSH2 0x875 JUMP JUMPDEST JUMPDEST POP SWAP2 SWAP1 POP JUMP INVALID LOG2 PUSH5 0x6970667358 0x22 SLT KECCAK256 PUSH9 0xFE903A148344F10809 0xFC 0xE3 0x23 0x2D BYTE SHR 0xC0 RETURN 0xE0 0xD7 0xEC DUP2 ADDMOD ISZERO 0xF6 0xC3 POP PUSH27 0x5430022064736F6C63430008130033000000000000000000000000 "
		},
		"gasEstimates": {
			"creation": {
				"codeDepositCost": "463000",
				"executionCost": "infinite",
				"totalCost": "infinite"
			},
			"external": {
				"changeOwner(address)": "54946",
				"dataEmissao()": "infinite",
				"getOwner()": "2589",
				"mudaDataPagamento(uint256)": "infinite",
				"nomeEmissor()": "infinite",
				"owner()": "2511",
				"valorNominal()": "2438",
				"visitas()": "2474"
			}
		},
		"methodIdentifiers": {
			"changeOwner(address)": "a6f9dae1",
			"dataEmissao()": "51f48cbb",
			"getOwner()": "893d20e8",
			"mudaDataPagamento(uint256)": "f7086d94",
			"nomeEmissor()": "fa36ed8c",
			"owner()": "8da5cb5b",
			"valorNominal()": "36e69b22",
			"visitas()": "658cb40b"
		}
	},
	"abi": [
		{
			"inputs": [
				{
					"internalType": "string",
					"name": "credor_",
					"type": "string"
				}
			],
			"stateMutability": "nonpayable",
			"type": "constructor"
		},
		{
			"anonymous": false,
			"inputs": [
				{
					"indexed": false,
					"internalType": "uint256",
					"name": "prazoAntigo",
					"type": "uint256"
				},
				{
					"indexed": false,
					"internalType": "uint256",
					"name": "prazoNovo",
					"type": "uint256"
				}
			],
			"name": "NovoPrazoPagamento",
			"type": "event"
		},
		{
			"anonymous": false,
			"inputs": [
				{
					"indexed": true,
					"internalType": "address",
					"name": "oldOwner",
					"type": "address"
				},
				{
					"indexed": true,
					"internalType": "address",
					"name": "newOwner",
					"type": "address"
				}
			],
			"name": "OwnerSet",
			"type": "event"
		},
		{
			"inputs": [
				{
					"internalType": "address",
					"name": "newOwner",
					"type": "address"
				}
			],
			"name": "changeOwner",
			"outputs": [],
			"stateMutability": "nonpayable",
			"type": "function"
		},
		{
			"inputs": [],
			"name": "dataEmissao",
			"outputs": [
				{
					"internalType": "uint256",
					"name": "",
					"type": "uint256"
				}
			],
			"stateMutability": "view",
			"type": "function"
		},
		{
			"inputs": [],
			"name": "getOwner",
			"outputs": [
				{
					"internalType": "address",
					"name": "",
					"type": "address"
				}
			],
			"stateMutability": "view",
			"type": "function"
		},
		{
			"inputs": [
				{
					"internalType": "uint256",
					"name": "prazoPagamento_",
					"type": "uint256"
				}
			],
			"name": "mudaDataPagamento",
			"outputs": [
				{
					"internalType": "uint256",
					"name": "",
					"type": "uint256"
				}
			],
			"stateMutability": "nonpayable",
			"type": "function"
		},
		{
			"inputs": [],
			"name": "nomeEmissor",
			"outputs": [
				{
					"internalType": "string",
					"name": "",
					"type": "string"
				}
			],
			"stateMutability": "view",
			"type": "function"
		},
		{
			"inputs": [],
			"name": "owner",
			"outputs": [
				{
					"internalType": "address",
					"name": "",
					"type": "address"
				}
			],
			"stateMutability": "view",
			"type": "function"
		},
		{
			"inputs": [],
			"name": "valorNominal",
			"outputs": [
				{
					"internalType": "uint256",
					"name": "",
					"type": "uint256"
				}
			],
			"stateMutability": "view",
			"type": "function"
		},
		{
			"inputs": [],
			"name": "visitas",
			"outputs": [
				{
					"internalType": "uint256",
					"name": "",
					"type": "uint256"
				}
			],
			"stateMutability": "view",
			"type": "function"
		}
	]
}